{
  "_format": "hh-sol-artifact-1",
  "contractName": "Counter",
  "sourceName": "contracts/Counter.sol",
  "abi": [
    {
      "inputs": [],
      "name": "count",
      "outputs": [],
      "stateMutability": "nonpayable",
      "type": "function"
    },
    {
      "inputs": [],
      "name": "getCounter",
      "outputs": [
        {
          "internalType": "uint256",
          "name": "",
          "type": "uint256"
        }
      ],
      "stateMutability": "view",
      "type": "function"
    }
  ],
  "bytecode": "0x608060405234801561001057600080fd5b5061032c806100206000396000f3fe608060405234801561001057600080fd5b50600436106100365760003560e01c806306661abd1461003b5780638ada066e14610045575b600080fd5b610043610063565b005b61004d6100bd565b60405161005a91906101a4565b60405180910390f35b600080815480929190610075906101ee565b91905055506100bb6040518060400160405280600e81526020017f436f756e746572206973206e6f770000000000000000000000000000000000008152506000546100c6565b565b60008054905090565b61015e82826040516024016100dc9291906102c6565b6040516020818303038152906040527fb60e72cc000000000000000000000000000000000000000000000000000000007bffffffffffffffffffffffffffffffffffffffffffffffffffffffff19166020820180517bffffffffffffffffffffffffffffffffffffffffffffffffffffffff8381831617835250505050610162565b5050565b60008151905060006a636f6e736f6c652e6c6f679050602083016000808483855afa5050505050565b6000819050919050565b61019e8161018b565b82525050565b60006020820190506101b96000830184610195565b92915050565b7f4e487b7100000000000000000000000000000000000000000000000000000000600052601160045260246000fd5b60006101f98261018b565b91507fffffffffffffffffffffffffffffffffffffffffffffffffffffffffffffffff820361022b5761022a6101bf565b5b600182019050919050565b600081519050919050565b600082825260208201905092915050565b60005b83811015610270578082015181840152602081019050610255565b60008484015250505050565b6000601f19601f8301169050919050565b600061029882610236565b6102a28185610241565b93506102b2818560208601610252565b6102bb8161027c565b840191505092915050565b600060408201905081810360008301526102e0818561028d565b90506102ef6020830184610195565b939250505056fea264697066735822122087ddf79f958b81cba2c4a14c42d011d5174ba135ecbcabda7109d9a55262713a64736f6c63430008110033",
  "linkReferences": {},
  "deployedLinkReferences": {}
}